{
  "address": "0xbAb4eA11b3d913297b522F9a2362249a60D38ad6",
  "abi": [
    {
      "inputs": [],
      "stateMutability": "nonpayable",
      "type": "constructor"
    },
    {
      "inputs": [],
      "name": "implementation",
      "outputs": [
        {
          "internalType": "address",
          "name": "",
          "type": "address"
        }
      ],
      "stateMutability": "view",
      "type": "function"
    },
    {
      "inputs": [
        {
          "internalType": "address",
          "name": "_dao",
          "type": "address"
        },
        {
          "internalType": "bytes",
          "name": "_data",
          "type": "bytes"
        }
      ],
      "name": "prepareInstallation",
      "outputs": [
        {
          "internalType": "address",
          "name": "plugin",
          "type": "address"
        },
        {
          "components": [
            {
              "internalType": "address[]",
              "name": "helpers",
              "type": "address[]"
            },
            {
              "components": [
                {
                  "internalType": "enum PermissionLib.Operation",
                  "name": "operation",
                  "type": "uint8"
                },
                {
                  "internalType": "address",
                  "name": "where",
                  "type": "address"
                },
                {
                  "internalType": "address",
                  "name": "who",
                  "type": "address"
                },
                {
                  "internalType": "address",
                  "name": "condition",
                  "type": "address"
                },
                {
                  "internalType": "bytes32",
                  "name": "permissionId",
                  "type": "bytes32"
                }
              ],
              "internalType": "struct PermissionLib.MultiTargetPermission[]",
              "name": "permissions",
              "type": "tuple[]"
            }
          ],
          "internalType": "struct IPluginSetup.PreparedSetupData",
          "name": "preparedSetupData",
          "type": "tuple"
        }
      ],
      "stateMutability": "nonpayable",
      "type": "function"
    },
    {
      "inputs": [
        {
          "internalType": "address",
          "name": "_dao",
          "type": "address"
        },
        {
          "components": [
            {
              "internalType": "address",
              "name": "plugin",
              "type": "address"
            },
            {
              "internalType": "address[]",
              "name": "currentHelpers",
              "type": "address[]"
            },
            {
              "internalType": "bytes",
              "name": "data",
              "type": "bytes"
            }
          ],
          "internalType": "struct IPluginSetup.SetupPayload",
          "name": "_payload",
          "type": "tuple"
        }
      ],
      "name": "prepareUninstallation",
      "outputs": [
        {
          "components": [
            {
              "internalType": "enum PermissionLib.Operation",
              "name": "operation",
              "type": "uint8"
            },
            {
              "internalType": "address",
              "name": "where",
              "type": "address"
            },
            {
              "internalType": "address",
              "name": "who",
              "type": "address"
            },
            {
              "internalType": "address",
              "name": "condition",
              "type": "address"
            },
            {
              "internalType": "bytes32",
              "name": "permissionId",
              "type": "bytes32"
            }
          ],
          "internalType": "struct PermissionLib.MultiTargetPermission[]",
          "name": "permissions",
          "type": "tuple[]"
        }
      ],
      "stateMutability": "view",
      "type": "function"
    },
    {
      "inputs": [
        {
          "internalType": "address",
          "name": "_dao",
          "type": "address"
        },
        {
          "internalType": "uint16",
          "name": "_currentBuild",
          "type": "uint16"
        },
        {
          "components": [
            {
              "internalType": "address",
              "name": "plugin",
              "type": "address"
            },
            {
              "internalType": "address[]",
              "name": "currentHelpers",
              "type": "address[]"
            },
            {
              "internalType": "bytes",
              "name": "data",
              "type": "bytes"
            }
          ],
          "internalType": "struct IPluginSetup.SetupPayload",
          "name": "_payload",
          "type": "tuple"
        }
      ],
      "name": "prepareUpdate",
      "outputs": [
        {
          "internalType": "bytes",
          "name": "initData",
          "type": "bytes"
        },
        {
          "components": [
            {
              "internalType": "address[]",
              "name": "helpers",
              "type": "address[]"
            },
            {
              "components": [
                {
                  "internalType": "enum PermissionLib.Operation",
                  "name": "operation",
                  "type": "uint8"
                },
                {
                  "internalType": "address",
                  "name": "where",
                  "type": "address"
                },
                {
                  "internalType": "address",
                  "name": "who",
                  "type": "address"
                },
                {
                  "internalType": "address",
                  "name": "condition",
                  "type": "address"
                },
                {
                  "internalType": "bytes32",
                  "name": "permissionId",
                  "type": "bytes32"
                }
              ],
              "internalType": "struct PermissionLib.MultiTargetPermission[]",
              "name": "permissions",
              "type": "tuple[]"
            }
          ],
          "internalType": "struct IPluginSetup.PreparedSetupData",
          "name": "preparedSetupData",
          "type": "tuple"
        }
      ],
      "stateMutability": "nonpayable",
      "type": "function"
    },
    {
      "inputs": [
        {
          "internalType": "bytes4",
          "name": "_interfaceId",
          "type": "bytes4"
        }
      ],
      "name": "supportsInterface",
      "outputs": [
        {
          "internalType": "bool",
          "name": "",
          "type": "bool"
        }
      ],
      "stateMutability": "view",
      "type": "function"
    }
  ],
  "transactionHash": "0xe131b76f7a49140c9f235fb1e9db13ea5fd73aa2a21a93c2d4496787e02c3df2",
  "args": [],
  "numDeployments": 4,
  "solcInputHash": "1e99686dcf71ff1502b81bd4b020e5e0",
  "bytecode": "0x60a060405234801561001057600080fd5b5060405161001d9061004b565b604051809103906000f080158015610039573d6000803e3d6000fd5b506001600160a01b0316608052610058565b610a0680610a0d83390190565b6080516109946100796000396000818160a101526102f001526109946000f3fe608060405234801561001057600080fd5b50600436106100675760003560e01c80639cb0a124116100505780639cb0a124146100cb578063a8a9c29e146100eb578063f10832f11461010c57600080fd5b806301ffc9a71461006c5780635c60da1b14610094575b600080fd5b61007f61007a366004610577565b61012d565b60405190151581526020015b60405180910390f35b6040516001600160a01b037f000000000000000000000000000000000000000000000000000000000000000016815260200161008b565b6100de6100d93660046105d7565b610164565b60405161008b919061068b565b6100fe6100f93660046106d4565b610295565b60405161008b9291906107ce565b61011f61011a366004610833565b6102bc565b60405161008b9291906108b6565b60006001600160e01b0319821663099718b560e41b148061015e57506301ffc9a760e01b6001600160e01b03198316145b92915050565b6060600061017560208401846108e0565b604080516001808252818301909252919250816020015b6040805160a08101825260008082526020808301829052928201819052606082018190526080820152825260001990920191018161018c579050506040805160a081019091529092508060018152602001856001600160a01b03168152602001826001600160a01b0316815260200160006001600160a01b03168152602001856001600160a01b0316630729d0546040518163ffffffff1660e01b8152600401602060405180830381865afa158015610249573d6000803e3d6000fd5b505050506040513d601f19601f8201168201806040525081019061026d91906108fb565b8152508260008151811061028357610283610914565b60200260200101819052505092915050565b60606102b4604051806040016040528060608152602001606081525090565b935093915050565b60006102db604051806040016040528060608152602001606081525090565b60006102e98486018661092a565b905061031d7f00000000000000000000000000000000000000000000000000000000000000006001600160a01b03166104d2565b81516020830151604051633d0d630f60e11b81526001600160a01b038a8116600483015260248201939093526044810191909152919450841690637a1ac61e90606401600060405180830381600087803b15801561037a57600080fd5b505af115801561038e573d6000803e3d6000fd5b50600092506001915061039e9050565b6040519080825280602002602001820160405280156103f757816020015b6040805160a0810182526000808252602080830182905292820181905260608201819052608082015282526000199092019101816103bc5790505b506040805160a081019091529091508060008152602001886001600160a01b03168152602001856001600160a01b0316815260200160006001600160a01b03168152602001886001600160a01b0316630729d0546040518163ffffffff1660e01b8152600401602060405180830381865afa15801561047a573d6000803e3d6000fd5b505050506040513d601f19601f8201168201806040525081019061049e91906108fb565b815250816000815181106104b4576104b4610914565b60200260200101819052508083602001819052505050935093915050565b6000763d602d80600a3d3981f3363d3d373d3d3d363d730000008260601b60e81c176000526e5af43d82803e903d91602b57fd5bf38260781b17602052603760096000f090506001600160a01b0381166105725760405162461bcd60e51b815260206004820152601660248201527f455243313136373a20637265617465206661696c656400000000000000000000604482015260640160405180910390fd5b919050565b60006020828403121561058957600080fd5b81356001600160e01b0319811681146105a157600080fd5b9392505050565b80356001600160a01b038116811461057257600080fd5b6000606082840312156105d157600080fd5b50919050565b600080604083850312156105ea57600080fd5b6105f3836105a8565b9150602083013567ffffffffffffffff81111561060f57600080fd5b61061b858286016105bf565b9150509250929050565b600081516003811061064757634e487b7160e01b600052602160045260246000fd5b8352506020818101516001600160a01b0390811691840191909152604080830151821690840152606080830151909116908301526080908101519082015260a00190565b6020808252825182820181905260009190848201906040850190845b818110156106c8576106ba838551610625565b9385019392506001016106a7565b50909695505050505050565b6000806000606084860312156106e957600080fd5b6106f2846105a8565b9250602084013561ffff8116811461070957600080fd5b9150604084013567ffffffffffffffff81111561072557600080fd5b610731868287016105bf565b9150509250925092565b805160408084528151908401819052600091602091908201906060860190845b818110156107805783516001600160a01b03168352928401929184019160010161075b565b50508483015186820387850152805180835290840192506000918401905b808310156107c3576107b1828551610625565b9150848401935060018301925061079e565b509695505050505050565b604081526000835180604084015260005b818110156107fc57602081870181015160608684010152016107df565b50600060608285010152601f19601f82011683019050606083820301602084015261082a606082018561073b565b95945050505050565b60008060006040848603121561084857600080fd5b610851846105a8565b9250602084013567ffffffffffffffff8082111561086e57600080fd5b818601915086601f83011261088257600080fd5b81358181111561089157600080fd5b8760208285010111156108a357600080fd5b6020830194508093505050509250925092565b6001600160a01b03831681526040602082015260006108d8604083018461073b565b949350505050565b6000602082840312156108f257600080fd5b6105a1826105a8565b60006020828403121561090d57600080fd5b5051919050565b634e487b7160e01b600052603260045260246000fd5b60006040828403121561093c57600080fd5b6040516040810181811067ffffffffffffffff8211171561096d57634e487b7160e01b600052604160045260246000fd5b60405282358152602092830135928101929092525091905056fea164736f6c6343000811000a608060405234801561001057600080fd5b5061001961001e565b6100dd565b600054610100900460ff161561008a5760405162461bcd60e51b815260206004820152602760248201527f496e697469616c697a61626c653a20636f6e747261637420697320696e697469604482015266616c697a696e6760c81b606482015260840160405180910390fd5b60005460ff908116146100db576000805460ff191660ff9081179091556040519081527f7f26b83ff96e1f2b6a682f133852f6798a09c465da95921460cefb38474024989060200160405180910390a15b565b61091a806100ec6000396000f3fe608060405234801561001057600080fd5b50600436106100885760003560e01c806341de68301161005b57806341de6830146101065780637a1ac61e14610115578063b068751114610128578063f6c9f7c91461013157600080fd5b806301ffc9a71461008d57806307ace2b5146100b55780633f707e6b146100cc5780634162169f146100e1575b600080fd5b6100a061009b366004610538565b610144565b60405190151581526020015b60405180910390f35b6100be60985481565b6040519081526020016100ac565b6100df6100da366004610569565b61017b565b005b6065546001600160a01b03165b6040516001600160a01b0390911681526020016100ac565b60016040516100ac91906105de565b6100df61012336600461061b565b6102c7565b6100be60995481565b6097546100ee906001600160a01b031681565b60006001600160e01b0319821663041de68360e41b148061017557506301ffc9a760e01b6001600160e01b03198316145b92915050565b6097546098546040516321a9204d60e11b815233600482015260248101919091526001600160a01b0390911690634352409a90604401602060405180830381865afa1580156101ce573d6000803e3d6000fd5b505050506040513d601f19601f820116820180604052508101906101f29190610650565b6102435760405162461bcd60e51b815260206004820152601f60248201527f53656e646572206973206e6f7420776561726572206f6620746865206861740060448201526064015b60405180910390fd5b6065546040516331c6fcc960e21b81526001600160a01b039091169063c71bf3249061027a9060009086908690839060040161069b565b6000604051808303816000875af1158015610299573d6000803e3d6000fd5b505050506040513d6000823e601f3d908101601f191682016040526102c191908101906107d6565b50505050565b600054610100900460ff16158080156102e75750600054600160ff909116105b806103015750303b158015610301575060005460ff166001145b6103735760405162461bcd60e51b815260206004820152602e60248201527f496e697469616c697a61626c653a20636f6e747261637420697320616c72656160448201527f647920696e697469616c697a6564000000000000000000000000000000000000606482015260840161023a565b6000805460ff191660011790558015610396576000805461ff0019166101001790555b61039f84610427565b60988390556097805473ffffffffffffffffffffffffffffffffffffffff1916733bc1a0ad72417f2d411118085256fc53cbddd137179055609982905580156102c1576000805461ff0019169055604051600181527f7f26b83ff96e1f2b6a682f133852f6798a09c465da95921460cefb38474024989060200160405180910390a150505050565b600054610100900460ff166104925760405162461bcd60e51b815260206004820152602b60248201527f496e697469616c697a61626c653a20636f6e7472616374206973206e6f74206960448201526a6e697469616c697a696e6760a81b606482015260840161023a565b61049b8161049e565b50565b600054610100900460ff166105095760405162461bcd60e51b815260206004820152602b60248201527f496e697469616c697a61626c653a20636f6e7472616374206973206e6f74206960448201526a6e697469616c697a696e6760a81b606482015260840161023a565b6065805473ffffffffffffffffffffffffffffffffffffffff19166001600160a01b0392909216919091179055565b60006020828403121561054a57600080fd5b81356001600160e01b03198116811461056257600080fd5b9392505050565b6000806020838503121561057c57600080fd5b823567ffffffffffffffff8082111561059457600080fd5b818501915085601f8301126105a857600080fd5b8135818111156105b757600080fd5b8660208260051b85010111156105cc57600080fd5b60209290920196919550909350505050565b602081016003831061060057634e487b7160e01b600052602160045260246000fd5b91905290565b6001600160a01b038116811461049b57600080fd5b60008060006060848603121561063057600080fd5b833561063b81610606565b95602085013595506040909401359392505050565b60006020828403121561066257600080fd5b8151801515811461056257600080fd5b81835281816020850137506000828201602090810191909152601f909101601f19169091010190565b60006060808301878452602082818601528187835260808601905060808860051b87010192508860005b8981101561077857878503607f190183528135368c9003605e190181126106eb57600080fd5b8b0180356106f881610606565b6001600160a01b03168652808501358587015260408082013536839003601e1901811261072457600080fd5b90910185810191903567ffffffffffffffff81111561074257600080fd5b80360383131561075157600080fd5b88828901526107638989018285610672565b975050509284019250908301906001016106c5565b505050506040939093019390935250949350505050565b634e487b7160e01b600052604160045260246000fd5b604051601f8201601f1916810167ffffffffffffffff811182821017156107ce576107ce61078f565b604052919050565b60008060408084860312156107ea57600080fd5b835167ffffffffffffffff8082111561080257600080fd5b8186019150601f878184011261081757600080fd5b825160208382111561082b5761082b61078f565b8160051b61083a8282016107a5565b928352858101820192828101908c85111561085457600080fd5b83880192505b848310156108f8578251878111156108725760008081fd5b8801603f81018e136108845760008081fd5b84810151888111156108985761089861078f565b6108a9818901601f191687016107a5565b8181528f8c8385010111156108be5760008081fd5b60005b828110156108dc578381018d015182820189015287016108c1565b506000918101870191909152835250918301919083019061085a565b9a90920151999b999a5050505050505050505056fea164736f6c6343000811000a",
  "devdoc": {
    "kind": "dev",
    "methods": {
      "implementation()": {
        "details": "The implementation can be instantiated via the `new` keyword, cloned via the minimal clones pattern (see [ERC-1167](https://eips.ethereum.org/EIPS/eip-1167)), or proxied via the UUPS pattern (see [ERC-1822](https://eips.ethereum.org/EIPS/eip-1822)).",
        "returns": {
          "_0": "The address of the plugin implementation contract."
        }
      },
      "prepareInstallation(address,bytes)": {
        "params": {
          "_dao": "The address of the installing DAO.",
          "_data": "The bytes-encoded data containing the input parameters for the installation as specified in the plugin's build metadata JSON file."
        },
        "returns": {
          "plugin": "The address of the `Plugin` contract being prepared for installation.",
          "preparedSetupData": "The deployed plugin's relevant data which consists of helpers and permissions."
        }
      },
      "prepareUninstallation(address,(address,address[],bytes))": {
        "params": {
          "_dao": "The address of the uninstalling DAO.",
          "_payload": "The relevant data necessary for the `prepareUninstallation`. See above."
        },
        "returns": {
          "permissions": "The array of multi-targeted permission operations to be applied by the `PluginSetupProcessor` to the uninstalling DAO."
        }
      },
      "prepareUpdate(address,uint16,(address,address[],bytes))": {
        "params": {
          "_currentBuild": "The build number of the plugin to update from.",
          "_dao": "The address of the updating DAO.",
          "_payload": "The relevant data necessary for the `prepareUpdate`. See above."
        },
        "returns": {
          "initData": "The initialization data to be passed to upgradeable contracts when the update is applied in the `PluginSetupProcessor`.",
          "preparedSetupData": "The deployed plugin's relevant data which consists of helpers and permissions."
        }
      },
      "supportsInterface(bytes4)": {
        "params": {
          "_interfaceId": "The ID of the interface."
        },
        "returns": {
          "_0": "Returns `true` if the interface is supported."
        }
      }
    },
    "version": 1
  },
  "userdoc": {
    "kind": "user",
    "methods": {
      "constructor": {
        "notice": "The constructor setting the `Admin` implementation contract to clone from."
      },
      "implementation()": {
        "notice": "Returns the plugin implementation address."
      },
      "prepareInstallation(address,bytes)": {
        "notice": "Prepares the installation of a plugin."
      },
      "prepareUninstallation(address,(address,address[],bytes))": {
        "notice": "Prepares the uninstallation of a plugin."
      },
      "prepareUpdate(address,uint16,(address,address[],bytes))": {
        "notice": "Prepares the update of a plugin."
      },
      "supportsInterface(bytes4)": {
        "notice": "Checks if this or the parent contract supports an interface by its ID."
      }
    },
    "version": 1
  },
  "storageLayout": {
    "storage": [],
    "types": null
  }
}