{
  "address": "0x9aA6d9C9b64Ac2Fdc00741bb8d13C93F6D7b6F4b",
  "abi": [
    {
      "inputs": [
        {
          "internalType": "contract GovernanceERC20",
          "name": "_governanceERC20Base",
          "type": "address"
        },
        {
          "internalType": "contract GovernanceWrappedERC20",
          "name": "_governanceWrappedERC20Base",
          "type": "address"
        }
      ],
      "stateMutability": "nonpayable",
      "type": "constructor"
    },
    {
      "inputs": [
        {
          "internalType": "address",
          "name": "token",
          "type": "address"
        }
      ],
      "name": "TokenNotContract",
      "type": "error"
    },
    {
      "inputs": [
        {
          "internalType": "address",
          "name": "token",
          "type": "address"
        }
      ],
      "name": "TokenNotERC20",
      "type": "error"
    },
    {
      "inputs": [
        {
          "internalType": "uint256",
          "name": "length",
          "type": "uint256"
        }
      ],
      "name": "WrongHelpersArrayLength",
      "type": "error"
    },
    {
      "inputs": [],
      "name": "governanceERC20Base",
      "outputs": [
        {
          "internalType": "address",
          "name": "",
          "type": "address"
        }
      ],
      "stateMutability": "view",
      "type": "function"
    },
    {
      "inputs": [],
      "name": "governanceWrappedERC20Base",
      "outputs": [
        {
          "internalType": "address",
          "name": "",
          "type": "address"
        }
      ],
      "stateMutability": "view",
      "type": "function"
    },
    {
      "inputs": [],
      "name": "implementation",
      "outputs": [
        {
          "internalType": "address",
          "name": "",
          "type": "address"
        }
      ],
      "stateMutability": "view",
      "type": "function"
    },
    {
      "inputs": [
        {
          "internalType": "address",
          "name": "_dao",
          "type": "address"
        },
        {
          "internalType": "bytes",
          "name": "_data",
          "type": "bytes"
        }
      ],
      "name": "prepareInstallation",
      "outputs": [
        {
          "internalType": "address",
          "name": "plugin",
          "type": "address"
        },
        {
          "components": [
            {
              "internalType": "address[]",
              "name": "helpers",
              "type": "address[]"
            },
            {
              "components": [
                {
                  "internalType": "enum PermissionLib.Operation",
                  "name": "operation",
                  "type": "uint8"
                },
                {
                  "internalType": "address",
                  "name": "where",
                  "type": "address"
                },
                {
                  "internalType": "address",
                  "name": "who",
                  "type": "address"
                },
                {
                  "internalType": "address",
                  "name": "condition",
                  "type": "address"
                },
                {
                  "internalType": "bytes32",
                  "name": "permissionId",
                  "type": "bytes32"
                }
              ],
              "internalType": "struct PermissionLib.MultiTargetPermission[]",
              "name": "permissions",
              "type": "tuple[]"
            }
          ],
          "internalType": "struct IPluginSetup.PreparedSetupData",
          "name": "preparedSetupData",
          "type": "tuple"
        }
      ],
      "stateMutability": "nonpayable",
      "type": "function"
    },
    {
      "inputs": [
        {
          "internalType": "address",
          "name": "_dao",
          "type": "address"
        },
        {
          "components": [
            {
              "internalType": "address",
              "name": "plugin",
              "type": "address"
            },
            {
              "internalType": "address[]",
              "name": "currentHelpers",
              "type": "address[]"
            },
            {
              "internalType": "bytes",
              "name": "data",
              "type": "bytes"
            }
          ],
          "internalType": "struct IPluginSetup.SetupPayload",
          "name": "_payload",
          "type": "tuple"
        }
      ],
      "name": "prepareUninstallation",
      "outputs": [
        {
          "components": [
            {
              "internalType": "enum PermissionLib.Operation",
              "name": "operation",
              "type": "uint8"
            },
            {
              "internalType": "address",
              "name": "where",
              "type": "address"
            },
            {
              "internalType": "address",
              "name": "who",
              "type": "address"
            },
            {
              "internalType": "address",
              "name": "condition",
              "type": "address"
            },
            {
              "internalType": "bytes32",
              "name": "permissionId",
              "type": "bytes32"
            }
          ],
          "internalType": "struct PermissionLib.MultiTargetPermission[]",
          "name": "permissions",
          "type": "tuple[]"
        }
      ],
      "stateMutability": "view",
      "type": "function"
    },
    {
      "inputs": [
        {
          "internalType": "address",
          "name": "_dao",
          "type": "address"
        },
        {
          "internalType": "uint16",
          "name": "_currentBuild",
          "type": "uint16"
        },
        {
          "components": [
            {
              "internalType": "address",
              "name": "plugin",
              "type": "address"
            },
            {
              "internalType": "address[]",
              "name": "currentHelpers",
              "type": "address[]"
            },
            {
              "internalType": "bytes",
              "name": "data",
              "type": "bytes"
            }
          ],
          "internalType": "struct IPluginSetup.SetupPayload",
          "name": "_payload",
          "type": "tuple"
        }
      ],
      "name": "prepareUpdate",
      "outputs": [
        {
          "internalType": "bytes",
          "name": "initData",
          "type": "bytes"
        },
        {
          "components": [
            {
              "internalType": "address[]",
              "name": "helpers",
              "type": "address[]"
            },
            {
              "components": [
                {
                  "internalType": "enum PermissionLib.Operation",
                  "name": "operation",
                  "type": "uint8"
                },
                {
                  "internalType": "address",
                  "name": "where",
                  "type": "address"
                },
                {
                  "internalType": "address",
                  "name": "who",
                  "type": "address"
                },
                {
                  "internalType": "address",
                  "name": "condition",
                  "type": "address"
                },
                {
                  "internalType": "bytes32",
                  "name": "permissionId",
                  "type": "bytes32"
                }
              ],
              "internalType": "struct PermissionLib.MultiTargetPermission[]",
              "name": "permissions",
              "type": "tuple[]"
            }
          ],
          "internalType": "struct IPluginSetup.PreparedSetupData",
          "name": "preparedSetupData",
          "type": "tuple"
        }
      ],
      "stateMutability": "nonpayable",
      "type": "function"
    },
    {
      "inputs": [
        {
          "internalType": "bytes4",
          "name": "_interfaceId",
          "type": "bytes4"
        }
      ],
      "name": "supportsInterface",
      "outputs": [
        {
          "internalType": "bool",
          "name": "",
          "type": "bool"
        }
      ],
      "stateMutability": "view",
      "type": "function"
    }
  ],
  "transactionHash": "0xbd8b85c292fb930f8da329af211938102572fb8f6bdda84a2771cfaffeaec5d7",
  "args": [
    "0x9f9b611BbD68cE7080DA96bb56aB64F15c810E59",
    "0x0000000000000000000000000000000000000000"
  ],
  "numDeployments": 1,
  "solcInputHash": "39c1283dd29b69a0df80a408b62722f8",
  "bytecode": "0x60e06040523480156200001157600080fd5b5060405162005cca38038062005cca8339810160408190526200003491620000a5565b60405162000042906200007e565b604051809103906000f0801580156200005f573d6000803e3d6000fd5b506001600160a01b0390811660805291821660a0521660c052620000e4565b613692806200263883390190565b6001600160a01b0381168114620000a257600080fd5b50565b60008060408385031215620000b957600080fd5b8251620000c6816200008c565b6020840151909250620000d9816200008c565b809150509250929050565b60805160a05160c0516124f56200014360003960008181610173015261092e01526000818160be01526109dd01526000818160fb015281816103d2015281816104cc01528181610aba01528181610c110152610cfb01526124f56000f3fe60806040523480156200001157600080fd5b5060043610620000875760003560e01c80639cb0a12411620000625780639cb0a1241462000120578063a8a9c29e1462000146578063e89b6b91146200016d578063f10832f1146200019557600080fd5b806301ffc9a7146200008c578063599cb1a614620000b85780635c60da1b14620000f9575b600080fd5b620000a36200009d3660046200139a565b620001bc565b60405190151581526020015b60405180910390f35b620000e07f000000000000000000000000000000000000000000000000000000000000000081565b6040516001600160a01b039091168152602001620000af565b7f0000000000000000000000000000000000000000000000000000000000000000620000e0565b6200013762000131366004620013f7565b620001f4565b604051620000af9190620014c0565b6200015d620001573660046200150d565b6200072d565b604051620000af92919062001681565b620000e07f000000000000000000000000000000000000000000000000000000000000000081565b620001ac620001a6366004620016b3565b62000755565b604051620000af9291906200173d565b60006001600160e01b0319821663099718b560e41b1480620001ee57506301ffc9a760e01b6001600160e01b03198316145b92915050565b6060600062000207602084018462001761565b915050600181146200023457604051633c53187f60e21b8152600481018290526024015b60405180910390fd5b600062000245602085018562001761565b6000818110620002595762000259620017b5565b9050602002016020810190620002709190620017cb565b905060006200027f8262000f56565b9050600081600081518110620002995762000299620017b5565b60200260200101518015620002c8575081600181518110620002bf57620002bf620017b5565b60200260200101515b8015620002f0575081600281518110620002e657620002e6620017b5565b6020026020010151155b9050806200030057600362000303565b60045b60ff1667ffffffffffffffff811115620003215762000321620017e9565b6040519080825280602002602001820160405280156200037c57816020015b6040805160a081018252600080825260208083018290529282018190526060820181905260808201528252600019909201910181620003405790505b506040805160a0810190915260018152909550602080820190620003a390890189620017cb565b6001600160a01b03168152602001886001600160a01b0316815260200160006001600160a01b031681526020017f00000000000000000000000000000000000000000000000000000000000000006001600160a01b0316631befc4056040518163ffffffff1660e01b8152600401602060405180830381865afa1580156200042f573d6000803e3d6000fd5b505050506040513d601f19601f82011682018060405250810190620004559190620017ff565b815250856000815181106200046e576200046e620017b5565b60209081029190910101526040805160a0810190915280600181526020908101906200049d90890189620017cb565b6001600160a01b03168152602001886001600160a01b0316815260200160006001600160a01b031681526020017f00000000000000000000000000000000000000000000000000000000000000006001600160a01b031663c9c4bfca6040518163ffffffff1660e01b8152600401602060405180830381865afa15801562000529573d6000803e3d6000fd5b505050506040513d601f19601f820116820180604052508101906200054f9190620017ff565b81525085600181518110620005685762000568620017b5565b60209081029190910101526040805160a081019091528060018152602001886001600160a01b03168152602001876000016020810190620005aa9190620017cb565b6001600160a01b0316815260200160006001600160a01b03168152602001886001600160a01b0316630729d0546040518163ffffffff1660e01b8152600401602060405180830381865afa15801562000607573d6000803e3d6000fd5b505050506040513d601f19601f820116820180604052508101906200062d9190620017ff565b81525085600281518110620006465762000646620017b5565b6020026020010181905250801562000723576040805160a081019091528060018152602001846001600160a01b03168152602001886001600160a01b0316815260200160006001600160a01b03168152602001846001600160a01b031663b2d2989c6040518163ffffffff1660e01b8152600401602060405180830381865afa158015620006d8573d6000803e3d6000fd5b505050506040513d601f19601f82011682018060405250810190620006fe9190620017ff565b81525085600381518110620007175762000717620017b5565b60200260200101819052505b5050505092915050565b60606200074d604051806040016040528060608152602001606081525090565b935093915050565b600062000775604051806040016040528060608152602001606081525090565b60008080620007878688018862001b3d565b815160408051600180825281830190925294975092955090935091600091602080830190803683370190505090506001600160a01b03821615620009d7576001600160a01b0382163b620007fa576040516318aca2db60e01b81526001600160a01b03831660048201526024016200022b565b62000805826200104f565b6200082f5760405163fa8925f160e01b81526001600160a01b03831660048201526024016200022b565b60006200083c8362000f56565b905080600081518110620008545762000854620017b5565b6020026020010151158015620008855750806001815181106200087b576200087b620017b5565b6020026020010151155b8015620008ad575080600281518110620008a357620008a3620017b5565b6020026020010151155b8062000922575080600081518110620008ca57620008ca620017b5565b60200260200101518015620008fa575080600181518110620008f057620008f0620017b5565b6020026020010151155b801562000922575080600281518110620009185762000918620017b5565b6020026020010151155b15620009d0576200095c7f00000000000000000000000000000000000000000000000000000000000000006001600160a01b031662001106565b855160208701516040808901519051639065714760e01b81529396506001600160a01b038716936390657147936200099b939092909160040162001c20565b600060405180830381600087803b158015620009b657600080fd5b505af1158015620009cb573d6000803e3d6000fd5b505050505b5062000a7d565b62000a0b7f00000000000000000000000000000000000000000000000000000000000000006001600160a01b031662001106565b6020850151604080870151905163dab27fa960e01b81529294506001600160a01b0385169263dab27fa99262000a48928f92899060040162001c62565b600060405180830381600087803b15801562000a6357600080fd5b505af115801562000a78573d6000803e3d6000fd5b505050505b818160008151811062000a945762000a94620017b5565b60200260200101906001600160a01b031690816001600160a01b03168152505062000b307f000000000000000000000000000000000000000000000000000000000000000063b2673b0760e01b8c888660405160240162000af89392919062001d0a565b60408051601f198184030181529190526020810180516001600160e01b03166001600160e01b031990931692909217909152620011a9565b84519097506000906001600160a01b031662000b4e57600462000b51565b60035b60ff1667ffffffffffffffff81111562000b6f5762000b6f620017e9565b60405190808252806020026020018201604052801562000bca57816020015b6040805160a08101825260008082526020808301829052928201819052606082018190526080820152825260001990920191018162000b8e5790505b506040805160a081019091529091508060008152602001896001600160a01b031681526020018c6001600160a01b0316815260200160006001600160a01b031681526020017f00000000000000000000000000000000000000000000000000000000000000006001600160a01b0316631befc4056040518163ffffffff1660e01b8152600401602060405180830381865afa15801562000c6e573d6000803e3d6000fd5b505050506040513d601f19601f8201168201806040525081019062000c949190620017ff565b8152508160008151811062000cad5762000cad620017b5565b60209081029190910101526040805160a081019091528060008152602001896001600160a01b031681526020018c6001600160a01b0316815260200160006001600160a01b031681526020017f00000000000000000000000000000000000000000000000000000000000000006001600160a01b031663c9c4bfca6040518163ffffffff1660e01b8152600401602060405180830381865afa15801562000d58573d6000803e3d6000fd5b505050506040513d601f19601f8201168201806040525081019062000d7e9190620017ff565b8152508160018151811062000d975762000d97620017b5565b60209081029190910101526040805160a0810190915280600081526020018c6001600160a01b03168152602001896001600160a01b0316815260200160006001600160a01b031681526020018c6001600160a01b0316630729d0546040518163ffffffff1660e01b8152600401602060405180830381865afa15801562000e22573d6000803e3d6000fd5b505050506040513d601f19601f8201168201806040525081019062000e489190620017ff565b8152508160028151811062000e615762000e61620017b5565b602090810291909101015284516001600160a01b031662000f3f576000836001600160a01b031663b2d2989c6040518163ffffffff1660e01b8152600401602060405180830381865afa15801562000ebd573d6000803e3d6000fd5b505050506040513d601f19601f8201168201806040525081019062000ee39190620017ff565b6040805160a0810190915290915080600081526001600160a01b0380871660208301528e1660408201526000606082015260800182905282518390600390811062000f325762000f32620017b5565b6020026020010181905250505b908652602086015250939792965091945050505050565b60408051600380825260808201909252606091600091906020820184803683370190505090506336372b0760e01b8160008151811062000f9a5762000f9a620017b5565b60200260200101906001600160e01b03191690816001600160e01b03191681525050637487d9fb60e11b8160018151811062000fda5762000fda620017b5565b60200260200101906001600160e01b03191690816001600160e01b0319168152505063078984cd60e11b816002815181106200101a576200101a620017b5565b6001600160e01b031990921660209283029190910190910152620010486001600160a01b03841682620011b7565b9392505050565b604080513060248083019190915282518083039091018152604490910182526020810180516001600160e01b03166370a0823160e01b1790529051600091829182916001600160a01b03861691620010a8919062001d80565b600060405180830381855afa9150503d8060008114620010e5576040519150601f19603f3d011682016040523d82523d6000602084013e620010ea565b606091505b5091509150818015620010fe575080516020145b949350505050565b6000763d602d80600a3d3981f3363d3d373d3d3d363d730000008260601b60e81c176000526e5af43d82803e903d91602b57fd5bf38260781b17602052603760096000f090506001600160a01b038116620011a45760405162461bcd60e51b815260206004820152601660248201527f455243313136373a20637265617465206661696c65640000000000000000000060448201526064016200022b565b919050565b60006200104883836200128d565b60606000825167ffffffffffffffff811115620011d857620011d8620017e9565b60405190808252806020026020018201604052801562001202578160200160208202803683370190505b5090506200121084620012c9565b15620010485760005b835181101562001285576200124b858583815181106200123d576200123d620017b5565b602002602001015162001301565b828281518110620012605762001260620017b5565b91151560209283029190910190910152806200127c8162001d9e565b91505062001219565b509392505050565b600082826040516200129f906200138c565b620012ac92919062001dc6565b604051809103906000f08015801562001285573d6000803e3d6000fd5b6000620012de826301ffc9a760e01b62001301565b8015620001ee5750620012fa826001600160e01b031962001301565b1592915050565b604080516001600160e01b03198316602480830191909152825180830390910181526044909101909152602080820180516001600160e01b03166301ffc9a760e01b178152825160009392849283928392918391908a617530fa92503d9150600051905082801562001374575060208210155b8015620013815750600081115b979650505050505050565b6106fe8062001deb83390190565b600060208284031215620013ad57600080fd5b81356001600160e01b0319811681146200104857600080fd5b80356001600160a01b0381168114620011a457600080fd5b600060608284031215620013f157600080fd5b50919050565b600080604083850312156200140b57600080fd5b6200141683620013c6565b9150602083013567ffffffffffffffff8111156200143357600080fd5b6200144185828601620013de565b9150509250929050565b600381106200146a57634e487b7160e01b600052602160045260246000fd5b50565b600081516200147c816200144b565b8352506020818101516001600160a01b0390811691840191909152604080830151821690840152606080830151909116908301526080908101519082015260a00190565b6020808252825182820181905260009190848201906040850190845b818110156200150157620014f28385516200146d565b938501939250600101620014dc565b50909695505050505050565b6000806000606084860312156200152357600080fd5b6200152e84620013c6565b9250602084013561ffff811681146200154657600080fd5b9150604084013567ffffffffffffffff8111156200156357600080fd5b6200157186828701620013de565b9150509250925092565b60005b83811015620015985781810151838201526020016200157e565b50506000910152565b60008151808452620015bb8160208601602086016200157b565b601f01601f19169290920160200192915050565b600081518084526020808501945080840160005b838110156200160a5781516001600160a01b031687529582019590820190600101620015e3565b509495945050505050565b60008151604084526200162c6040850182620015cf565b60208481015186830387830152805180845290820193509091600091908301905b808310156200167657620016638286516200146d565b915083850194506001830192506200164d565b509695505050505050565b604081526000620016966040830185620015a1565b8281036020840152620016aa818562001615565b95945050505050565b600080600060408486031215620016c957600080fd5b620016d484620013c6565b9250602084013567ffffffffffffffff80821115620016f257600080fd5b818601915086601f8301126200170757600080fd5b8135818111156200171757600080fd5b8760208285010111156200172a57600080fd5b6020830194508093505050509250925092565b6001600160a01b0383168152604060208201526000620010fe604083018462001615565b6000808335601e198436030181126200177957600080fd5b83018035915067ffffffffffffffff8211156200179557600080fd5b6020019150600581901b3603821315620017ae57600080fd5b9250929050565b634e487b7160e01b600052603260045260246000fd5b600060208284031215620017de57600080fd5b6200104882620013c6565b634e487b7160e01b600052604160045260246000fd5b6000602082840312156200181257600080fd5b5051919050565b6040805190810167ffffffffffffffff811182821017156200183f576200183f620017e9565b60405290565b60405160a0810167ffffffffffffffff811182821017156200183f576200183f620017e9565b604051601f8201601f1916810167ffffffffffffffff81118282101715620018975762001897620017e9565b604052919050565b803563ffffffff81168114620011a457600080fd5b600082601f830112620018c657600080fd5b813567ffffffffffffffff811115620018e357620018e3620017e9565b620018f8601f8201601f19166020016200186b565b8181528460208386010111156200190e57600080fd5b816020850160208301376000918101602001919091529392505050565b6000606082840312156200193e57600080fd5b6040516060810167ffffffffffffffff8282108183111715620019655762001965620017e9565b816040528293506200197785620013c6565b835260208501359150808211156200198e57600080fd5b6200199c86838701620018b4565b60208401526040850135915080821115620019b657600080fd5b50620019c585828601620018b4565b6040830152505092915050565b600067ffffffffffffffff821115620019ef57620019ef620017e9565b5060051b60200190565b600082601f83011262001a0b57600080fd5b8135602062001a2462001a1e83620019d2565b6200186b565b82815260059290921b8401810191818101908684111562001a4457600080fd5b8286015b8481101562001676578035835291830191830162001a48565b60006040828403121562001a7457600080fd5b62001a7e62001819565b9050813567ffffffffffffffff8082111562001a9957600080fd5b818401915084601f83011262001aae57600080fd5b8135602062001ac162001a1e83620019d2565b82815260059290921b8401810191818101908884111562001ae157600080fd5b948201945b8386101562001b0a5762001afa86620013c6565b8252948201949082019062001ae6565b8652508581013593508284111562001b2157600080fd5b62001b2f87858801620019f9565b818601525050505092915050565b600080600083850360e081121562001b5457600080fd5b60a081121562001b6357600080fd5b5062001b6e62001845565b84356003811062001b7e57600080fd5b815262001b8e602086016200189f565b602082015262001ba1604086016200189f565b6040820152606085013567ffffffffffffffff808216821462001bc357600080fd5b8160608401526080870135608084015282955060a087013592508083111562001beb57600080fd5b62001bf9888489016200192b565b945060c087013592508083111562001c1057600080fd5b5050620015718682870162001a61565b6001600160a01b038416815260606020820152600062001c446060830185620015a1565b828103604084015262001c588185620015a1565b9695505050505050565b6001600160a01b03851681526000602060808184015262001c876080840187620015a1565b838103604085015262001c9b8187620015a1565b9050838103606085015284516040825262001cba6040830182620015cf565b8684015183820393850193909352825180825290840192840191506000905b8082101562001cfb578251845292840192918401916001919091019062001cd9565b50919998505050505050505050565b6001600160a01b038481168252835160e08301919062001d2a816200144b565b80602085015250602085015163ffffffff8082166040860152806040880151166060860152505067ffffffffffffffff6060860151166080840152608085015160a084015280841660c084015250949350505050565b6000825162001d948184602087016200157b565b9190910192915050565b60006001820162001dbf57634e487b7160e01b600052601160045260246000fd5b5060010190565b6001600160a01b0383168152604060208201526000620010fe6040830184620015a156fe60806040526040516106fe3803806106fe83398101604081905261002291610319565b61002e82826000610035565b5050610436565b61003e8361006b565b60008251118061004b5750805b156100665761006483836100ab60201b6100291760201c565b505b505050565b610074816100d7565b6040516001600160a01b038216907fbc7cd75a20ee27fd9adebab32041f755214dbc6bffa90cc0225b39da2e5c2d3b90600090a250565b60606100d083836040518060600160405280602781526020016106d7602791396101a9565b9392505050565b6100ea8161022260201b6100551760201c565b6101515760405162461bcd60e51b815260206004820152602d60248201527f455243313936373a206e657720696d706c656d656e746174696f6e206973206e60448201526c1bdd08184818dbdb9d1c9858dd609a1b60648201526084015b60405180910390fd5b806101887f360894a13ba1a3210667c828492db98dca3e2076cc3735a920a3ca505d382bbc60001b61023160201b6100641760201c565b80546001600160a01b0319166001600160a01b039290921691909117905550565b6060600080856001600160a01b0316856040516101c691906103e7565b600060405180830381855af49150503d8060008114610201576040519150601f19603f3d011682016040523d82523d6000602084013e610206565b606091505b50909250905061021886838387610234565b9695505050505050565b6001600160a01b03163b151590565b90565b606083156102a357825160000361029c576001600160a01b0385163b61029c5760405162461bcd60e51b815260206004820152601d60248201527f416464726573733a2063616c6c20746f206e6f6e2d636f6e74726163740000006044820152606401610148565b50816102ad565b6102ad83836102b5565b949350505050565b8151156102c55781518083602001fd5b8060405162461bcd60e51b81526004016101489190610403565b634e487b7160e01b600052604160045260246000fd5b60005b838110156103105781810151838201526020016102f8565b50506000910152565b6000806040838503121561032c57600080fd5b82516001600160a01b038116811461034357600080fd5b60208401519092506001600160401b038082111561036057600080fd5b818501915085601f83011261037457600080fd5b815181811115610386576103866102df565b604051601f8201601f19908116603f011681019083821181831017156103ae576103ae6102df565b816040528281528860208487010111156103c757600080fd5b6103d88360208301602088016102f5565b80955050505050509250929050565b600082516103f98184602087016102f5565b9190910192915050565b60208152600082518060208401526104228160408501602087016102f5565b601f01601f19169190910160400192915050565b610292806104456000396000f3fe60806040523661001357610011610017565b005b6100115b610027610022610067565b61009f565b565b606061004e838360405180606001604052806027815260200161025f602791396100c3565b9392505050565b6001600160a01b03163b151590565b90565b600061009a7f360894a13ba1a3210667c828492db98dca3e2076cc3735a920a3ca505d382bbc546001600160a01b031690565b905090565b3660008037600080366000845af43d6000803e8080156100be573d6000f35b3d6000fd5b6060600080856001600160a01b0316856040516100e0919061020f565b600060405180830381855af49150503d806000811461011b576040519150601f19603f3d011682016040523d82523d6000602084013e610120565b606091505b50915091506101318683838761013b565b9695505050505050565b606083156101af5782516000036101a8576001600160a01b0385163b6101a85760405162461bcd60e51b815260206004820152601d60248201527f416464726573733a2063616c6c20746f206e6f6e2d636f6e747261637400000060448201526064015b60405180910390fd5b50816101b9565b6101b983836101c1565b949350505050565b8151156101d15781518083602001fd5b8060405162461bcd60e51b815260040161019f919061022b565b60005b838110156102065781810151838201526020016101ee565b50506000910152565b600082516102218184602087016101eb565b9190910192915050565b602081526000825180602084015261024a8160408501602087016101eb565b601f01601f1916919091016040019291505056fe416464726573733a206c6f772d6c6576656c2064656c65676174652063616c6c206661696c6564a164736f6c6343000811000a416464726573733a206c6f772d6c6576656c2064656c65676174652063616c6c206661696c6564a164736f6c6343000811000a60a0604052306080523480156200001557600080fd5b506200002062000026565b620000e7565b600054610100900460ff1615620000935760405162461bcd60e51b815260206004820152602760248201527f496e697469616c697a61626c653a20636f6e747261637420697320696e697469604482015266616c697a696e6760c81b606482015260840160405180910390fd5b60005460ff90811614620000e5576000805460ff191660ff9081179091556040519081527f7f26b83ff96e1f2b6a682f133852f6798a09c465da95921460cefb38474024989060200160405180910390a15b565b6080516135736200011f600039600081816107850152818161080f015281816109050152818161098a0152610a7001526135736000f3fe6080604052600436106101cd5760003560e01c80637c36e8e8116100f7578063c9c4bfca11610095578063da35c66411610064578063da35c664146105c6578063e28c3b19146105db578063f60046b2146105fa578063fe0d94c11461061057600080fd5b8063c9c4bfca14610532578063cc63604a14610566578063ce6366c414610586578063cf131149146105a657600080fd5b80639cba3021116100d15780639cba3021146104a0578063a230c524146104c0578063b2673b07146104e0578063c7f758a81461050057600080fd5b80637c36e8e8146104075780638a4b00f814610428578063970601d81461044857600080fd5b80633659cfe61161016f57806352d1902d1161013e57806352d1902d1461037c578063536f9f421461039157806356715761146103b15780635c60da1b146103f257600080fd5b80633659cfe6146103035780634162169f1461032357806341de6830146103555780634f1ef2861461036957600080fd5b80630dfb278e116101ab5780630dfb278e1461025d57806317d1b4041461027f5780631befc4051461029f57806323d07188146102e157600080fd5b806301ffc9a7146101d2578063054fd2c2146102075780630de218561461023d575b600080fd5b3480156101de57600080fd5b506101f26101ed3660046127d5565b610630565b60405190151581526020015b60405180910390f35b34801561021357600080fd5b506101605465010000000000900463ffffffff165b60405163ffffffff90911681526020016101fe565b34801561024957600080fd5b506101f26102583660046127ff565b610676565b34801561026957600080fd5b5061027d610278366004612830565b610719565b005b34801561028b57600080fd5b506101f261029a366004612875565b610764565b3480156102ab57600080fd5b506102d37fbba35d41610b7d25c8e486006535c76bd423091563e694d206ae3d71ce949fe581565b6040519081526020016101fe565b3480156102ed57600080fd5b506101605460ff165b6040516101fe91906128d9565b34801561030f57600080fd5b5061027d61031e3660046128ec565b61077b565b34801561032f57600080fd5b5060c9546001600160a01b03165b6040516001600160a01b0390911681526020016101fe565b34801561036157600080fd5b5060006102f6565b61027d610377366004612978565b6108fb565b34801561038857600080fd5b506102d3610a63565b34801561039d57600080fd5b506102d36103ac3660046127ff565b610b29565b3480156103bd57600080fd5b50610160546901000000000000000000900467ffffffffffffffff1660405167ffffffffffffffff90911681526020016101fe565b3480156103fe57600080fd5b5061033d610b98565b34801561041357600080fd5b5061016054610100900463ffffffff16610228565b34801561043457600080fd5b506101f26104433660046127ff565b610bd0565b34801561045457600080fd5b50610493610463366004612a0b565b600082815261015f602090815260408083206001600160a01b038516845260060190915290205460ff1692915050565b6040516101fe9190612a4f565b3480156104ac57600080fd5b506102d36104bb366004612ae3565b610c10565b3480156104cc57600080fd5b506101f26104db3660046128ec565b610f93565b3480156104ec57600080fd5b5061027d6104fb366004612bc8565b611084565b34801561050c57600080fd5b5061052061051b3660046127ff565b6111f1565b6040516101fe96959493929190612ce0565b34801561053e57600080fd5b506102d37f821b6e3a557148015a918c89e5d092e878a69854a2d1a410635f771bd5a8a3f581565b34801561057257600080fd5b506101f26105813660046127ff565b61144f565b34801561059257600080fd5b5061027d6105a1366004612d98565b61145a565b3480156105b257600080fd5b506101f26105c13660046127ff565b611495565b3480156105d257600080fd5b506102d36114f7565b3480156105e757600080fd5b50610191546001600160a01b031661033d565b34801561060657600080fd5b50610161546102d3565b34801561061c57600080fd5b5061027d61062b3660046127ff565b611503565b60006001600160e01b03198216632875800f60e11b148061066157506001600160e01b0319821663288c314960e21b145b80610670575061067082611535565b92915050565b600081815261015f60205260408120600381015460048201546001830154849291906106b290600160a81b900467ffffffffffffffff16610b29565b6106bc9190612de3565b6106c69190612de3565b60018301549091506106e4908290610100900463ffffffff16612df6565b6004830154600184015461070690610100900463ffffffff16620f4240612de3565b6107109190612df6565b11949350505050565b60c9547fbba35d41610b7d25c8e486006535c76bd423091563e694d206ae3d71ce949fe590610757906001600160a01b031630335b84600036611575565b61076082611631565b5050565b6000610771848484611802565b90505b9392505050565b6001600160a01b037f000000000000000000000000000000000000000000000000000000000000000016300361080d5760405162461bcd60e51b815260206004820152602c60248201527f46756e6374696f6e206d7573742062652063616c6c6564207468726f7567682060448201526b19195b1959d85d1958d85b1b60a21b60648201526084015b60405180910390fd5b7f00000000000000000000000000000000000000000000000000000000000000006001600160a01b03166108687f360894a13ba1a3210667c828492db98dca3e2076cc3735a920a3ca505d382bbc546001600160a01b031690565b6001600160a01b0316146108d35760405162461bcd60e51b815260206004820152602c60248201527f46756e6374696f6e206d7573742062652063616c6c6564207468726f7567682060448201526b6163746976652070726f787960a01b6064820152608401610804565b6108dc81611956565b604080516000808252602082019092526108f89183919061198f565b50565b6001600160a01b037f00000000000000000000000000000000000000000000000000000000000000001630036109885760405162461bcd60e51b815260206004820152602c60248201527f46756e6374696f6e206d7573742062652063616c6c6564207468726f7567682060448201526b19195b1959d85d1958d85b1b60a21b6064820152608401610804565b7f00000000000000000000000000000000000000000000000000000000000000006001600160a01b03166109e37f360894a13ba1a3210667c828492db98dca3e2076cc3735a920a3ca505d382bbc546001600160a01b031690565b6001600160a01b031614610a4e5760405162461bcd60e51b815260206004820152602c60248201527f46756e6374696f6e206d7573742062652063616c6c6564207468726f7567682060448201526b6163746976652070726f787960a01b6064820152608401610804565b610a5782611956565b6107608282600161198f565b6000306001600160a01b037f00000000000000000000000000000000000000000000000000000000000000001614610b035760405162461bcd60e51b815260206004820152603860248201527f555550535570677261646561626c653a206d757374206e6f742062652063616c60448201527f6c6564207468726f7567682064656c656761746563616c6c00000000000000006064820152608401610804565b507f360894a13ba1a3210667c828492db98dca3e2076cc3735a920a3ca505d382bbc5b90565b61019154604051632394e7a360e21b8152600481018390526000916001600160a01b031690638e539e8c90602401602060405180830381865afa158015610b74573d6000803e3d6000fd5b505050506040513d601f19601f820116820180604052508101906106709190612e0d565b6000610bcb7f360894a13ba1a3210667c828492db98dca3e2076cc3735a920a3ca505d382bbc546001600160a01b031690565b905090565b600081815261015f602052604081206002810154600382015460058301546004840154610bfd9190612e26565b610c079190612e26565b10159392505050565b600080610c1d6101615490565b90508015610d49576101915481906001600160a01b0316639ab24eb0336040516001600160e01b031960e084901b1681526001600160a01b039091166004820152602401602060405180830381865afa158015610c7e573d6000803e3d6000fd5b505050506040513d601f19601f82011682018060405250810190610ca29190612e0d565b108015610d2957506101915481906001600160a01b03166370a08231336040516001600160e01b031960e084901b1681526001600160a01b039091166004820152602401602060405180830381865afa158015610d03573d6000803e3d6000fd5b505050506040513d601f19601f82011682018060405250810190610d279190612e0d565b105b15610d4957604051633aae64d160e21b8152336004820152602401610804565b5060001943016000610d5a82610b29565b905080600003610d7d57604051631f05dadd60e21b815260040160405180910390fd5b610d878787611b34565b9097509550610d9c338d8d8a8a8f8f8f611c43565b600081815261015f6020526040902060018101805467ffffffffffffffff8a8116600160681b027fffffffffffffffffffffff0000000000000000ffffffffffffffffffffffffff918d166501000000000002919091167fffffffffffffffffffffff00000000000000000000000000000000ffffffffff90921691909117179055909350610e2a83611ca9565b60018201805467ffffffffffffffff92909216600160a81b027fffffff0000000000000000ffffffffffffffffffffffffffffffffffffffffff909216919091179055610e7a6101605460ff1690565b60018083018054909160ff1990911690836002811115610e9c57610e9c6128b3565b021790555061016054610100900463ffffffff1660018201805464ffffffff00191661010063ffffffff9384160217905561016054610eec9184916501000000000090041663ffffffff16611d2d565b60028201558815610eff57600881018990555b60005b8a811015610f5e57816007018c8c83818110610f2057610f20612e39565b9050602002810190610f329190612e4f565b815460018101835560009283526020909220909160030201610f548282612ee9565b5050600101610f02565b506000866003811115610f7357610f736128b3565b14610f8357610f8384878761145a565b5050509998505050505050505050565b610191546040516309ab24eb60e41b81526001600160a01b0383811660048301526000928392911690639ab24eb090602401602060405180830381865afa158015610fe2573d6000803e3d6000fd5b505050506040513d601f19601f820116820180604052508101906110069190612e0d565b11806106705750610191546040516370a0823160e01b81526001600160a01b03848116600483015260009216906370a0823190602401602060405180830381865afa158015611059573d6000803e3d6000fd5b505050506040513d601f19601f8201168201806040525081019061107d9190612e0d565b1192915050565b600054610100900460ff16158080156110a45750600054600160ff909116105b806110be5750303b1580156110be575060005460ff166001145b6111305760405162461bcd60e51b815260206004820152602e60248201527f496e697469616c697a61626c653a20636f6e747261637420697320616c72656160448201527f647920696e697469616c697a65640000000000000000000000000000000000006064820152608401610804565b6000805460ff191660011790558015611153576000805461ff0019166101001790555b61115d8484611da4565b61019180546001600160a01b0319166001600160a01b0384169081179091556040517f3f1ec22954d444cb99f80a1989ac8f631616b8a575a89379e514c0f7f748c93390600090a280156111eb576000805461ff0019169055604051600181527f7f26b83ff96e1f2b6a682f133852f6798a09c465da95921460cefb38474024989060200160405180910390a15b50505050565b6040805160c081018252600080825260208201819052918101829052606081018290526080810182905260a08101829052819061124860405180606001604052806000815260200160008152602001600081525090565b600085815261015f602052604081206060919061126481611e21565b81546040805160c08101909152600184018054939a5060ff9283169950909290918391166002811115611299576112996128b3565b60028111156112aa576112aa6128b3565b8152815463ffffffff61010082041660208084019190915267ffffffffffffffff6501000000000083048116604080860191909152600160681b84048216606080870191909152600160a81b909404909116608085015260019094015460a090930192909252825190810183526003850154815260048501548183015260058501548184015260078501805484518185028101850190955280855294995090975091929060009084015b82821015611438576000848152602090819020604080516060810182526003860290920180546001600160a01b03168352600181015493830193909352600283018054929392918401916113a790612e6f565b80601f01602080910402602001604051908101604052809291908181526020018280546113d390612e6f565b80156114205780601f106113f557610100808354040283529160200191611420565b820191906000526020600020905b81548152906001019060200180831161140357829003601f168201915b50505050508152505081526020019060010190611354565b505050509250806008015491505091939550919395565b600061067082611e85565b33611466848285611802565b61148957838184604051631c2d2c9560e21b81526004016108049392919061300d565b6111eb84848385611f2d565b600081815261015f60205260408120600581015460018201546114c39190610100900463ffffffff16612df6565b600482015460018301546114e590610100900463ffffffff16620f4240612de3565b6114ef9190612df6565b119392505050565b6000610bcb61012d5490565b61150c81611e85565b61152c57604051639fefd0f160e01b815260048101829052602401610804565b6108f8816121bb565b60006001600160e01b0319821663433c580f60e11b148061156657506001600160e01b0319821663268c8a2f60e11b145b80610670575061067082612323565b604051637ef7c88360e11b81526001600160a01b0387169063fdef9106906115a99088908890889088908890600401613059565b602060405180830381865afa1580156115c6573d6000803e3d6000fd5b505050506040513d601f19601f820116820180604052508101906115ea9190613097565b61162957604051630cb6f8ed60e21b81526001600160a01b03808816600483015280871660248301528516604482015260648101849052608401610804565b505050505050565b61163f6001620f4240612de3565b61164f60408301602084016130c6565b63ffffffff1611156116a1576116696001620f4240612de3565b61167960408301602084016130c6565b60405163cc80c19560e01b8152600481019290925263ffffffff166024820152604401610804565b620f42406116b560608301604084016130c6565b63ffffffff1611156116d557620f424061167960608301604084016130c6565b610e106116e860808301606084016130e3565b67ffffffffffffffff16101561173857610e1061170b60808301606084016130e3565b60405163628819f760e11b815267ffffffffffffffff928316600482015291166024820152604401610804565b6301e1338061174d60808301606084016130e3565b67ffffffffffffffff161115611772576301e1338061170b60808301606084016130e3565b80610160611780828261311a565b507fa8a18d06ddd19f24a872740e3d364c86f62be25f7154525dda18ef07fda46f3e90506117b160208301836131ef565b6117c160408401602085016130c6565b6117d160608501604086016130c6565b6117e160808601606087016130e3565b85608001356040516117f795949392919061320c565b60405180910390a150565b600083815261015f6020526040812061181a81611e21565b611828576000915050610774565b600083600381111561183c5761183c6128b3565b0361184b576000915050610774565b610191546001820154604051630748d63560e31b81526001600160a01b038781166004830152600160a81b90920467ffffffffffffffff166024820152911690633a46b1a890604401602060405180830381865afa1580156118b1573d6000803e3d6000fd5b505050506040513d601f19601f820116820180604052508101906118d59190612e0d565b6000036118e6576000915050610774565b6001600160a01b038416600090815260068201602052604081205460ff166003811115611915576119156128b3565b1415801561193c57506002600182015460ff166002811115611939576119396128b3565b14155b1561194b576000915050610774565b506001949350505050565b60c9547f821b6e3a557148015a918c89e5d092e878a69854a2d1a410635f771bd5a8a3f590610760906001600160a01b0316303361074e565b7f4910fdfa16fed3260ed0e7147f7cc6da11a60208b5b9406d12a635614ffd91435460ff16156119c7576119c283612348565b505050565b826001600160a01b03166352d1902d6040518163ffffffff1660e01b8152600401602060405180830381865afa925050508015611a21575060408051601f3d908101601f19168201909252611a1e91810190612e0d565b60015b611a935760405162461bcd60e51b815260206004820152602e60248201527f45524331393637557067726164653a206e657720696d706c656d656e7461746960448201527f6f6e206973206e6f7420555550530000000000000000000000000000000000006064820152608401610804565b7f360894a13ba1a3210667c828492db98dca3e2076cc3735a920a3ca505d382bbc8114611b285760405162461bcd60e51b815260206004820152602960248201527f45524331393637557067726164653a20756e737570706f727465642070726f7860448201527f6961626c655555494400000000000000000000000000000000000000000000006064820152608401610804565b506119c2838383612406565b6000806000611b4242611ca9565b90508467ffffffffffffffff16600003611b5e57809250611baa565b8492508067ffffffffffffffff168367ffffffffffffffff161015611baa57604051631332703d60e21b815267ffffffffffffffff808316600483015284166024820152604401610804565b61016054600090611bd2906901000000000000000000900467ffffffffffffffff1685613248565b90508467ffffffffffffffff16600003611bee57809250611c3a565b8492508067ffffffffffffffff168367ffffffffffffffff161015611c3a57604051631332703d60e21b815267ffffffffffffffff808316600483015284166024820152604401610804565b50509250929050565b6000611c4d61242b565b9050886001600160a01b0316817fa6c1f8f4276dc3f243459e13b557c84e8f4e90b2e09070bad5f6909cee687c9288888c8c8a8a8a604051611c959796959493929190613269565b60405180910390a398975050505050505050565b600067ffffffffffffffff821115611d295760405162461bcd60e51b815260206004820152602660248201527f53616665436173743a2076616c756520646f65736e27742066697420696e203660448201527f34206269747300000000000000000000000000000000000000000000000000006064820152608401610804565b5090565b6000620f4240821115611d5f5760405163cc80c19560e01b8152620f4240600482015260248101839052604401610804565b611d698284612df6565b92506000611d7a620f42408561338f565b9050611d89620f4240856133a3565b91508015611d9d57611d9a826133b7565b91505b5092915050565b600054610100900460ff16611e0f5760405162461bcd60e51b815260206004820152602b60248201527f496e697469616c697a61626c653a20636f6e7472616374206973206e6f74206960448201526a6e697469616c697a696e6760a81b6064820152608401610804565b611e1882612446565b61076081611631565b600080611e2d42611ca9565b600184015490915067ffffffffffffffff808316650100000000009092041611801590611e725750600183015467ffffffffffffffff600160681b9091048116908216105b8015610774575050905460ff1615919050565b600081815261015f60205260408120805460ff1615611ea75750600092915050565b611eb081611e21565b15611ef85760018082015460ff166002811115611ecf57611ecf6128b3565b14611edd5750600092915050565b611ee683610676565b611ef35750600092915050565b611f0e565b611f0183611495565b611f0e5750600092915050565b611f1783610bd0565b611f245750600092915050565b50600192915050565b600084815261015f60205260408082206101915460018201549251630748d63560e31b81526001600160a01b038781166004830152600160a81b90940467ffffffffffffffff1660248201529193921690633a46b1a890604401602060405180830381865afa158015611fa4573d6000803e3d6000fd5b505050506040513d601f19601f82011682018060405250810190611fc89190612e0d565b6001600160a01b038516600090815260068401602052604090205490915060ff166002816003811115611ffd57611ffd6128b3565b0361201c576004830154612012908390612de3565b600484015561207e565b6003816003811115612030576120306128b3565b0361204f576005830154612045908390612de3565b600584015561207e565b6001816003811115612063576120636128b3565b0361207e576003830154612078908390612de3565b60038401555b6002866003811115612092576120926128b3565b036120b15760048301546120a7908390612e26565b6004840155612113565b60038660038111156120c5576120c56128b3565b036120e45760058301546120da908390612e26565b6005840155612113565b60018660038111156120f8576120f86128b3565b0361211357600383015461210d908390612e26565b60038401555b6001600160a01b03851660009081526006840160205260409020805487919060ff1916600183600381111561214a5761214a6128b3565b0217905550846001600160a01b0316877fb83d25c6a5d258561330739951487acb4bd09ba5190b5d32c4f261817d906792888560405161218b9291906133d0565b60405180910390a38380156121a457506121a487611e85565b156121b2576121b2876121bb565b50505050505050565b600081815261015f60205260409020805460ff191660011790556119c26121ea60c9546001600160a01b031690565b8261015f6000858152602001908152602001600020600701805480602002602001604051908101604052809291908181526020016000905b82821015612306576000848152602090819020604080516060810182526003860290920180546001600160a01b031683526001810154938301939093526002830180549293929184019161227590612e6f565b80601f01602080910402602001604051908101604052809291908181526020018280546122a190612e6f565b80156122ee5780601f106122c3576101008083540402835291602001916122ee565b820191906000526020600020905b8154815290600101906020018083116122d157829003601f168201915b50505050508152505081526020019060010190612222565b505050600086815261015f602052604090206008015490506124ba565b60006001600160e01b0319821663368d719960e21b1480610670575061067082612570565b6001600160a01b0381163b6123c55760405162461bcd60e51b815260206004820152602d60248201527f455243313936373a206e657720696d706c656d656e746174696f6e206973206e60448201527f6f74206120636f6e7472616374000000000000000000000000000000000000006064820152608401610804565b7f360894a13ba1a3210667c828492db98dca3e2076cc3735a920a3ca505d382bbc80546001600160a01b0319166001600160a01b0392909216919091179055565b61240f836125c0565b60008251118061241c5750805b156119c2576111eb8383612600565b60006124356114f7565b9050610b2661012d80546001019055565b600054610100900460ff166124b15760405162461bcd60e51b815260206004820152602b60248201527f496e697469616c697a61626c653a20636f6e7472616374206973206e6f74206960448201526a6e697469616c697a696e6760a81b6064820152608401610804565b6108f881612625565b6040516331c6fcc960e21b81526060906000906001600160a01b0387169063c71bf324906124f0908890889088906004016133eb565b6000604051808303816000875af115801561250f573d6000803e3d6000fd5b505050506040513d6000823e601f3d908101601f191682016040526125379190810190613414565b604051919350915085907f712ae1383f79ac853f8d882153778e0260ef8f03b504e2866e0593e04d2b291f90600090a294509492505050565b60006001600160e01b0319821663041de68360e41b14806125a157506001600160e01b031982166352d1902d60e01b145b8061067057506301ffc9a760e01b6001600160e01b0319831614610670565b6125c981612348565b6040516001600160a01b038216907fbc7cd75a20ee27fd9adebab32041f755214dbc6bffa90cc0225b39da2e5c2d3b90600090a250565b60606107748383604051806060016040528060278152602001613540602791396126b2565b600054610100900460ff166126905760405162461bcd60e51b815260206004820152602b60248201527f496e697469616c697a61626c653a20636f6e7472616374206973206e6f74206960448201526a6e697469616c697a696e6760a81b6064820152608401610804565b60c980546001600160a01b0319166001600160a01b0392909216919091179055565b6060600080856001600160a01b0316856040516126cf919061351a565b600060405180830381855af49150503d806000811461270a576040519150601f19603f3d011682016040523d82523d6000602084013e61270f565b606091505b50915091506127208683838761272a565b9695505050505050565b60608315612799578251600003612792576001600160a01b0385163b6127925760405162461bcd60e51b815260206004820152601d60248201527f416464726573733a2063616c6c20746f206e6f6e2d636f6e74726163740000006044820152606401610804565b50816127a3565b6127a383836127ab565b949350505050565b8151156127bb5781518083602001fd5b8060405162461bcd60e51b8152600401610804919061352c565b6000602082840312156127e757600080fd5b81356001600160e01b03198116811461077457600080fd5b60006020828403121561281157600080fd5b5035919050565b600060a0828403121561282a57600080fd5b50919050565b600060a0828403121561284257600080fd5b6107748383612818565b6001600160a01b03811681146108f857600080fd5b80356004811061287057600080fd5b919050565b60008060006060848603121561288a57600080fd5b83359250602084013561289c8161284c565b91506128aa60408501612861565b90509250925092565b634e487b7160e01b600052602160045260246000fd5b600381106108f8576108f86128b3565b602081016128e6836128c9565b91905290565b6000602082840312156128fe57600080fd5b81356107748161284c565b634e487b7160e01b600052604160045260246000fd5b604051601f8201601f1916810167ffffffffffffffff8111828210171561294857612948612909565b604052919050565b600067ffffffffffffffff82111561296a5761296a612909565b50601f01601f191660200190565b6000806040838503121561298b57600080fd5b82356129968161284c565b9150602083013567ffffffffffffffff8111156129b257600080fd5b8301601f810185136129c357600080fd5b80356129d66129d182612950565b61291f565b8181528660208385010111156129eb57600080fd5b816020840160208301376000602083830101528093505050509250929050565b60008060408385031215612a1e57600080fd5b823591506020830135612a308161284c565b809150509250929050565b60048110612a4b57612a4b6128b3565b9052565b602081016106708284612a3b565b60008083601f840112612a6f57600080fd5b50813567ffffffffffffffff811115612a8757600080fd5b6020830191508360208260051b8501011115612aa257600080fd5b9250929050565b67ffffffffffffffff811681146108f857600080fd5b803561287081612aa9565b80151581146108f857600080fd5b803561287081612aca565b600080600080600080600080600060e08a8c031215612b0157600080fd5b893567ffffffffffffffff80821115612b1957600080fd5b818c0191508c601f830112612b2d57600080fd5b813581811115612b3c57600080fd5b8d6020828501011115612b4e57600080fd5b60209283019b509950908b01359080821115612b6957600080fd5b50612b768c828d01612a5d565b90985096505060408a01359450612b8f60608b01612abf565b9350612b9d60808b01612abf565b9250612bab60a08b01612861565b9150612bb960c08b01612ad8565b90509295985092959850929598565b600080600060e08486031215612bdd57600080fd5b8335612be88161284c565b9250612bf78560208601612818565b915060c0840135612c078161284c565b809150509250925092565b60005b83811015612c2d578181015183820152602001612c15565b50506000910152565b60008151808452612c4e816020860160208601612c12565b601f01601f19169290920160200192915050565b600081518084526020808501808196508360051b8101915082860160005b85811015612cd3578284038952815180516001600160a01b031685528581015186860152604090810151606091860182905290612cbf81870183612c36565b9a87019a9550505090840190600101612c80565b5091979650505050505050565b60006101a0881515835287151560208401528651612cfd816128c9565b8060408501525063ffffffff6020880151166060840152604087015167ffffffffffffffff80821660808601528060608a01511660a08601528060808a01511660c0860152505060a087015160e0840152612d706101008401878051825260208082015190830152604090810151910152565b80610160840152612d8381840186612c62565b91505082610180830152979650505050505050565b600080600060608486031215612dad57600080fd5b83359250612dbd60208501612861565b91506040840135612c0781612aca565b634e487b7160e01b600052601160045260246000fd5b8181038181111561067057610670612dcd565b808202811582820484141761067057610670612dcd565b600060208284031215612e1f57600080fd5b5051919050565b8082018082111561067057610670612dcd565b634e487b7160e01b600052603260045260246000fd5b60008235605e19833603018112612e6557600080fd5b9190910192915050565b600181811c90821680612e8357607f821691505b60208210810361282a57634e487b7160e01b600052602260045260246000fd5b601f8211156119c257600081815260208120601f850160051c81016020861015612eca5750805b601f850160051c820191505b8181101561162957828155600101612ed6565b8135612ef48161284c565b6001600160a01b0381166001600160a01b031983541617825550600160208084013582840155600283016040850135601e19863603018112612f3557600080fd5b8501803567ffffffffffffffff811115612f4e57600080fd5b8036038483011315612f5f57600080fd5b612f7381612f6d8554612e6f565b85612ea3565b6000601f821160018114612fa95760008315612f9157508382018601355b600019600385901b1c1916600184901b178555613002565b600085815260209020601f19841690835b82811015612fd957868501890135825593880193908901908801612fba565b5084821015612ff85760001960f88660031b161c198885880101351681555b50508683881b0185555b505050505050505050565b8381526001600160a01b0383166020820152606081016127a36040830184612a3b565b81835281816020850137506000828201602090810191909152601f909101601f19169091010190565b60006001600160a01b0380881683528087166020840152508460408301526080606083015261308c608083018486613030565b979650505050505050565b6000602082840312156130a957600080fd5b815161077481612aca565b63ffffffff811681146108f857600080fd5b6000602082840312156130d857600080fd5b8135610774816130b4565b6000602082840312156130f557600080fd5b813561077481612aa9565b600381106108f857600080fd5b6000813561067081612aa9565b813561312581613100565b61312e816128c9565b815460ff821691508160ff198216178355602084013561314d816130b4565b64ffffffff008160081b169050808364ffffffffff198416171784556040850135613177816130b4565b68ffffffff00000000008160281b168468ffffffffffffffffff198516178317178555505050506131e16131ad6060840161310d565b825470ffffffffffffffff000000000000000000191660489190911b70ffffffffffffffff00000000000000000016178255565b608082013560018201555050565b60006020828403121561320157600080fd5b813561077481613100565b60a08101613219876128c9565b95815263ffffffff948516602082015292909316604083015267ffffffffffffffff1660608201526080015290565b67ffffffffffffffff818116838216019080821115611d9d57611d9d612dcd565b600067ffffffffffffffff808a1683526020818a1681850152604060a08186015261329860a086018a8c613030565b606086820381880152818983528483019050848a60051b8401018b60005b8c81101561335b57858303601f190184528135368f9003605e190181126132dc57600080fd5b8e0180356132e98161284c565b6001600160a01b0316845280890135898501528781013536829003601e1901811261331357600080fd5b0188810190358a81111561332657600080fd5b80360382131561333557600080fd5b86898601526133478786018284613030565b958a019594505050908701906001016132b6565b50508097505050505050505082608083015298975050505050505050565b634e487b7160e01b600052601260045260246000fd5b60008261339e5761339e613379565b500690565b6000826133b2576133b2613379565b500490565b6000600182016133c9576133c9612dcd565b5060010190565b604081016133de8285612a3b565b8260208301529392505050565b8381526060602082015260006134046060830185612c62565b9050826040830152949350505050565b600080604080848603121561342857600080fd5b835167ffffffffffffffff8082111561344057600080fd5b818601915086601f83011261345457600080fd5b815160208282111561346857613468612909565b8160051b61347782820161291f565b928352848101820192828101908b85111561349157600080fd5b83870192505b84831015613506578251868111156134af5760008081fd5b8701603f81018d136134c15760008081fd5b848101516134d16129d182612950565b8181528e8b8385010111156134e65760008081fd5b6134f5828883018d8601612c12565b845250509183019190830190613497565b9990920151989a9899505050505050505050565b60008251612e65818460208701612c12565b6020815260006107746020830184612c3656fe416464726573733a206c6f772d6c6576656c2064656c65676174652063616c6c206661696c6564a164736f6c6343000811000a",
  "devdoc": {
    "author": "Aragon Association - 2022-2023",
    "custom:security-contact": "sirt@aragon.org",
    "errors": {
      "TokenNotContract(address)": [
        {
          "params": {
            "token": "The token address"
          }
        }
      ],
      "TokenNotERC20(address)": [
        {
          "params": {
            "token": "The token address"
          }
        }
      ],
      "WrongHelpersArrayLength(uint256)": [
        {
          "params": {
            "length": "The array length of passed helpers."
          }
        }
      ]
    },
    "kind": "dev",
    "methods": {
      "constructor": {
        "params": {
          "_governanceERC20Base": "The base `GovernanceERC20` contract to create clones from.",
          "_governanceWrappedERC20Base": "The base `GovernanceWrappedERC20` contract to create clones from."
        }
      },
      "implementation()": {
        "details": "The implementation can be instantiated via the `new` keyword, cloned via the minimal clones pattern (see [ERC-1167](https://eips.ethereum.org/EIPS/eip-1167)), or proxied via the UUPS pattern (see [ERC-1822](https://eips.ethereum.org/EIPS/eip-1822)).",
        "returns": {
          "_0": "The address of the plugin implementation contract."
        }
      },
      "prepareInstallation(address,bytes)": {
        "params": {
          "_dao": "The address of the installing DAO.",
          "_data": "The bytes-encoded data containing the input parameters for the installation as specified in the plugin's build metadata JSON file."
        },
        "returns": {
          "plugin": "The address of the `Plugin` contract being prepared for installation.",
          "preparedSetupData": "The deployed plugin's relevant data which consists of helpers and permissions."
        }
      },
      "prepareUninstallation(address,(address,address[],bytes))": {
        "params": {
          "_dao": "The address of the uninstalling DAO.",
          "_payload": "The relevant data necessary for the `prepareUninstallation`. See above."
        },
        "returns": {
          "permissions": "The array of multi-targeted permission operations to be applied by the `PluginSetupProcessor` to the uninstalling DAO."
        }
      },
      "prepareUpdate(address,uint16,(address,address[],bytes))": {
        "params": {
          "_currentBuild": "The build number of the plugin to update from.",
          "_dao": "The address of the updating DAO.",
          "_payload": "The relevant data necessary for the `prepareUpdate`. See above."
        },
        "returns": {
          "initData": "The initialization data to be passed to upgradeable contracts when the update is applied in the `PluginSetupProcessor`.",
          "preparedSetupData": "The deployed plugin's relevant data which consists of helpers and permissions."
        }
      },
      "supportsInterface(bytes4)": {
        "params": {
          "_interfaceId": "The ID of the interface."
        },
        "returns": {
          "_0": "Returns `true` if the interface is supported."
        }
      }
    },
    "title": "TokenVotingSetup",
    "version": 1
  },
  "userdoc": {
    "errors": {
      "TokenNotContract(address)": [
        {
          "notice": "Thrown if token address is passed which is not a token."
        }
      ],
      "TokenNotERC20(address)": [
        {
          "notice": "Thrown if token address is not ERC20."
        }
      ],
      "WrongHelpersArrayLength(uint256)": [
        {
          "notice": "Thrown if passed helpers array is of wrong length."
        }
      ]
    },
    "kind": "user",
    "methods": {
      "constructor": {
        "notice": "The contract constructor deploying the plugin implementation contract and receiving the governance token base contracts to clone from."
      },
      "governanceERC20Base()": {
        "notice": "The address of the `GovernanceERC20` base contract."
      },
      "governanceWrappedERC20Base()": {
        "notice": "The address of the `GovernanceWrappedERC20` base contract."
      },
      "implementation()": {
        "notice": "Returns the plugin implementation address."
      },
      "prepareInstallation(address,bytes)": {
        "notice": "Prepares the installation of a plugin."
      },
      "prepareUninstallation(address,(address,address[],bytes))": {
        "notice": "Prepares the uninstallation of a plugin."
      },
      "prepareUpdate(address,uint16,(address,address[],bytes))": {
        "notice": "Prepares the update of a plugin."
      },
      "supportsInterface(bytes4)": {
        "notice": "Checks if this or the parent contract supports an interface by its ID."
      }
    },
    "notice": "The setup contract of the `TokenVoting` plugin.",
    "version": 1
  },
  "storageLayout": {
    "storage": [],
    "types": null
  }
}